{
  "transactions": [
    {
      "hash": "0xff3a90e7861aeed2dffc4a4248feb3818eba0b335c527649b643731b6446bdb0",
      "transactionType": "CALL",
      "contractName": null,
      "contractAddress": "0xe7f1725e7734ce288f8367e1bb143e90bb3f0512",
      "function": "approve(address,uint256)",
      "arguments": [
        "0x0DCd1Bf9A1b36cE34237eEaFef220932846BCD82",
        "1000000000000000000"
      ],
      "transaction": {
        "from": "0xf39fd6e51aad88f6f4ce6ab8827279cfffb92266",
        "to": "0xe7f1725e7734ce288f8367e1bb143e90bb3f0512",
        "gas": "0x106a0",
        "value": "0x0",
        "input": "0x095ea7b30000000000000000000000000dcd1bf9a1b36ce34237eeafef220932846bcd820000000000000000000000000000000000000000000000000de0b6b3a7640000",
        "nonce": "0x3a",
        "chainId": "0x7a69"
      },
      "additionalContracts": [],
      "isFixedGasLimit": false
    },
    {
      "hash": "0x12303c603924763039998f7a56d47a83f0d618d4101c9cd29e7a3eb1768c3e27",
      "transactionType": "CALL",
      "contractName": null,
      "contractAddress": "0x0dcd1bf9a1b36ce34237eeafef220932846bcd82",
      "function": "deposit(uint256,address)",
      "arguments": [
        "1000000000000000000",
        "0x1804c8AB1F12E6bbf3894d4083f33e07309d1f38"
      ],
      "transaction": {
        "from": "0xf39fd6e51aad88f6f4ce6ab8827279cfffb92266",
        "to": "0x0dcd1bf9a1b36ce34237eeafef220932846bcd82",
        "gas": "0x2d8a6",
        "value": "0x0",
        "input": "0x6e553f650000000000000000000000000000000000000000000000000de0b6b3a76400000000000000000000000000001804c8ab1f12e6bbf3894d4083f33e07309d1f38",
        "nonce": "0x3b",
        "chainId": "0x7a69"
      },
      "additionalContracts": [],
      "isFixedGasLimit": false
    }
  ],
  "receipts": [
    {
      "status": "0x1",
      "cumulativeGasUsed": "0xb393",
      "logs": [
        {
          "address": "0xe7f1725e7734ce288f8367e1bb143e90bb3f0512",
          "topics": [
            "0x8c5be1e5ebec7d5bd14f71427d1e84f3dd0314c0f7b2291e5b200ac8c7c3b925",
            "0x000000000000000000000000f39fd6e51aad88f6f4ce6ab8827279cfffb92266",
            "0x0000000000000000000000000dcd1bf9a1b36ce34237eeafef220932846bcd82"
          ],
          "data": "0x0000000000000000000000000000000000000000000000000de0b6b3a7640000",
          "blockHash": "0xad9bee2f8ed48d8d6aa09993e768cc6a96cbf379e809f8bef3c6ff6feec87fbf",
          "blockNumber": "0x30",
          "blockTimestamp": "0x67e44ba0",
          "transactionHash": "0xff3a90e7861aeed2dffc4a4248feb3818eba0b335c527649b643731b6446bdb0",
          "transactionIndex": "0x0",
          "logIndex": "0x0",
          "removed": false
        }
      ],
      "logsBloom": "0x00000000000000000000000000000000000000000000000000000000000000000000000000000000000000000000000010000000000000000000000000200000000000000000000000000000000000000000000000000010000000000000000000000000000000000000000100000008000000000000000000000000000000000000000000000000000000000000000000000000000000000000000000000000020000000000000000000000000000000000000000000000000000000000000000000000000000200000000000001000000000002000000000000000000000000010000000000000000000000000000000000000080000800000000000000000",
      "type": "0x2",
      "transactionHash": "0xff3a90e7861aeed2dffc4a4248feb3818eba0b335c527649b643731b6446bdb0",
      "transactionIndex": "0x0",
      "blockHash": "0xad9bee2f8ed48d8d6aa09993e768cc6a96cbf379e809f8bef3c6ff6feec87fbf",
      "blockNumber": "0x30",
      "gasUsed": "0xb393",
      "effectiveGasPrice": "0x236ce6",
      "blobGasPrice": "0x1",
      "from": "0xf39fd6e51aad88f6f4ce6ab8827279cfffb92266",
      "to": "0xe7f1725e7734ce288f8367e1bb143e90bb3f0512",
      "contractAddress": null
    },
    {
      "status": "0x1",
      "cumulativeGasUsed": "0x229f1",
      "logs": [
        {
          "address": "0x5fbdb2315678afecb367f032d93f642f64180aa3",
          "topics": [
            "0x6e9738e5aa38fe1517adbb480351ec386ece82947737b18badbcad1e911133ec",
            "0x0000000000000000000000000dcd1bf9a1b36ce34237eeafef220932846bcd82",
            "0xf39fd6e51aad88f6f4ce6ab8827279cfffb92200000000000000000000000000",
            "0x0000000000000000000000000dcd1bf9a1b36ce34237eeafef220932846bcd82"
          ],
          "data": "0x000000000000000000000000f39fd6e51aad88f6f4ce6ab8827279cfffb922666e553f6500000000000000000000000000000000000000000000000000000000",
          "blockHash": "0xd40b18613534fc4bb263e708db098e531f33a578ed2ca507b8fd58766d8290a3",
          "blockNumber": "0x31",
          "blockTimestamp": "0x67e44ba0",
          "transactionHash": "0x12303c603924763039998f7a56d47a83f0d618d4101c9cd29e7a3eb1768c3e27",
          "transactionIndex": "0x0",
          "logIndex": "0x0",
          "removed": false
        },
        {
          "address": "0xe7f1725e7734ce288f8367e1bb143e90bb3f0512",
          "topics": [
            "0xddf252ad1be2c89b69c2b068fc378daa952ba7f163c4a11628f55a4df523b3ef",
            "0x000000000000000000000000f39fd6e51aad88f6f4ce6ab8827279cfffb92266",
            "0x0000000000000000000000000dcd1bf9a1b36ce34237eeafef220932846bcd82"
          ],
          "data": "0x0000000000000000000000000000000000000000000000000de0b6b3a7640000",
          "blockHash": "0xd40b18613534fc4bb263e708db098e531f33a578ed2ca507b8fd58766d8290a3",
          "blockNumber": "0x31",
          "blockTimestamp": "0x67e44ba0",
          "transactionHash": "0x12303c603924763039998f7a56d47a83f0d618d4101c9cd29e7a3eb1768c3e27",
          "transactionIndex": "0x0",
          "logIndex": "0x1",
          "removed": false
        },
        {
          "address": "0x0dcd1bf9a1b36ce34237eeafef220932846bcd82",
          "topics": [
            "0xddf252ad1be2c89b69c2b068fc378daa952ba7f163c4a11628f55a4df523b3ef",
            "0x0000000000000000000000000000000000000000000000000000000000000000",
            "0x0000000000000000000000001804c8ab1f12e6bbf3894d4083f33e07309d1f38"
          ],
          "data": "0x0000000000000000000000000000000000000000000000000de0b6b3a7640000",
          "blockHash": "0xd40b18613534fc4bb263e708db098e531f33a578ed2ca507b8fd58766d8290a3",
          "blockNumber": "0x31",
          "blockTimestamp": "0x67e44ba0",
          "transactionHash": "0x12303c603924763039998f7a56d47a83f0d618d4101c9cd29e7a3eb1768c3e27",
          "transactionIndex": "0x0",
          "logIndex": "0x2",
          "removed": false
        },
        {
          "address": "0x0dcd1bf9a1b36ce34237eeafef220932846bcd82",
          "topics": [
            "0xdcbc1c05240f31ff3ad067ef1ee35ce4997762752e3a095284754544f4c709d7",
            "0x000000000000000000000000f39fd6e51aad88f6f4ce6ab8827279cfffb92266",
            "0x0000000000000000000000001804c8ab1f12e6bbf3894d4083f33e07309d1f38"
          ],
          "data": "0x0000000000000000000000000000000000000000000000000de0b6b3a76400000000000000000000000000000000000000000000000000000de0b6b3a7640000",
          "blockHash": "0xd40b18613534fc4bb263e708db098e531f33a578ed2ca507b8fd58766d8290a3",
          "blockNumber": "0x31",
          "blockTimestamp": "0x67e44ba0",
          "transactionHash": "0x12303c603924763039998f7a56d47a83f0d618d4101c9cd29e7a3eb1768c3e27",
          "transactionIndex": "0x0",
          "logIndex": "0x3",
          "removed": false
        },
        {
          "address": "0x5fbdb2315678afecb367f032d93f642f64180aa3",
          "topics": [
            "0xaea973cfb51ea8ca328767d72f105b5b9d2360c65f5ac4110a2c4470434471c9",
            "0x0000000000000000000000000dcd1bf9a1b36ce34237eeafef220932846bcd82"
          ],
          "data": "0x",
          "blockHash": "0xd40b18613534fc4bb263e708db098e531f33a578ed2ca507b8fd58766d8290a3",
          "blockNumber": "0x31",
          "blockTimestamp": "0x67e44ba0",
          "transactionHash": "0x12303c603924763039998f7a56d47a83f0d618d4101c9cd29e7a3eb1768c3e27",
          "transactionIndex": "0x0",
          "logIndex": "0x4",
          "removed": false
        }
      ],
      "logsBloom": "0x000000000000000000000000000000000000000000000080000000000000200000000000000000000000000000000000100010000000000000000000000000000000004000000000000000080000000000000000000000100000000000004000000000400200000000010001000008080800000000040000000000100000000000000000000000000000040000000000000002000000000000000002000000000000000000000000000000000000010000000000000000000000080000000000000000420000042000000000000010000000000020080000000000000000200000000000000000000000000000800000000000000a0000800000000000020000",
      "type": "0x2",
      "transactionHash": "0x12303c603924763039998f7a56d47a83f0d618d4101c9cd29e7a3eb1768c3e27",
      "transactionIndex": "0x0",
      "blockHash": "0xd40b18613534fc4bb263e708db098e531f33a578ed2ca507b8fd58766d8290a3",
      "blockNumber": "0x31",
      "gasUsed": "0x229f1",
      "effectiveGasPrice": "0x1f02c3",
      "blobGasPrice": "0x1",
      "from": "0xf39fd6e51aad88f6f4ce6ab8827279cfffb92266",
      "to": "0x0dcd1bf9a1b36ce34237eeafef220932846bcd82",
      "contractAddress": null
    }
  ],
  "libraries": [],
  "pending": [],
  "returns": {},
  "timestamp": 1743014816,
  "chain": 31337,
  "commit": "cc3f498"
}