{
  "transactions": [
    {
      "hash": "0xa028b78ff5aeb2e2d7c3661e7f276de7c46db7e3b5b28c8bd425edcfd5544da3",
      "transactionType": "CALL",
      "contractName": null,
      "contractAddress": "0x0dcd1bf9a1b36ce34237eeafef220932846bcd82",
      "function": "approve(address,uint256)",
      "arguments": [
        "0x5FbDB2315678afecb367f032d93F642f64180aa3",
        "500000000000000001"
      ],
      "transaction": {
        "from": "0xf39fd6e51aad88f6f4ce6ab8827279cfffb92266",
        "to": "0x0dcd1bf9a1b36ce34237eeafef220932846bcd82",
        "gas": "0xf920",
        "value": "0x0",
        "input": "0x095ea7b30000000000000000000000005fbdb2315678afecb367f032d93f642f64180aa300000000000000000000000000000000000000000000000006f05b59d3b20001",
        "nonce": "0x3c",
        "chainId": "0x7a69"
      },
      "additionalContracts": [],
      "isFixedGasLimit": false
    },
    {
      "hash": "0xbf20e5378b9f5d005f9e305e2e3650663e11cd5774a6218e691d7a2632525a8e",
      "transactionType": "CALL",
      "contractName": null,
      "contractAddress": "0x0dcd1bf9a1b36ce34237eeafef220932846bcd82",
      "function": "approve(address,uint256)",
      "arguments": [
        "0x0DCd1Bf9A1b36cE34237eEaFef220932846BCD82",
        "500000000000000001"
      ],
      "transaction": {
        "from": "0xf39fd6e51aad88f6f4ce6ab8827279cfffb92266",
        "to": "0x0dcd1bf9a1b36ce34237eeafef220932846bcd82",
        "gas": "0xa618",
        "value": "0x0",
        "input": "0x095ea7b30000000000000000000000000dcd1bf9a1b36ce34237eeafef220932846bcd8200000000000000000000000000000000000000000000000006f05b59d3b20001",
        "nonce": "0x3d",
        "chainId": "0x7a69"
      },
      "additionalContracts": [],
      "isFixedGasLimit": false
    },
    {
      "hash": "0x2ed8986a9fc289abfb82089a58a8963e36583459c0c5de94d24936912703bb0a",
      "transactionType": "CALL",
      "contractName": null,
      "contractAddress": "0x0dcd1bf9a1b36ce34237eeafef220932846bcd82",
      "function": "redeem(uint256,address,address)",
      "arguments": [
        "500000000000000001",
        "0xf39Fd6e51aad88F6F4ce6aB8827279cffFb92266",
        "0xf39Fd6e51aad88F6F4ce6aB8827279cffFb92266"
      ],
      "transaction": {
        "from": "0xf39fd6e51aad88f6f4ce6ab8827279cfffb92266",
        "to": "0x0dcd1bf9a1b36ce34237eeafef220932846bcd82",
        "gas": "0x2eb78",
        "value": "0x0",
        "input": "0xba08765200000000000000000000000000000000000000000000000006f05b59d3b20001000000000000000000000000f39fd6e51aad88f6f4ce6ab8827279cfffb92266000000000000000000000000f39fd6e51aad88f6f4ce6ab8827279cfffb92266",
        "nonce": "0x3e",
        "chainId": "0x7a69"
      },
      "additionalContracts": [],
      "isFixedGasLimit": false
    }
  ],
  "receipts": [
    {
      "status": "0x1",
      "cumulativeGasUsed": "0xb45e",
      "logs": [
        {
          "address": "0x0dcd1bf9a1b36ce34237eeafef220932846bcd82",
          "topics": [
            "0x8c5be1e5ebec7d5bd14f71427d1e84f3dd0314c0f7b2291e5b200ac8c7c3b925",
            "0x000000000000000000000000f39fd6e51aad88f6f4ce6ab8827279cfffb92266",
            "0x0000000000000000000000005fbdb2315678afecb367f032d93f642f64180aa3"
          ],
          "data": "0x00000000000000000000000000000000000000000000000006f05b59d3b20001",
          "blockHash": "0xef8d0b43ad0b5e81df80045032d6bce40d77d74388579356dee8023dd89aefdd",
          "blockNumber": "0x32",
          "blockTimestamp": "0x67e44d66",
          "transactionHash": "0xa028b78ff5aeb2e2d7c3661e7f276de7c46db7e3b5b28c8bd425edcfd5544da3",
          "transactionIndex": "0x0",
          "logIndex": "0x0",
          "removed": false
        }
      ],
      "logsBloom": "0x00000000000000000000000000000000000000000000000000000000000000000000000000000000000000000000000000000000000000000000000000200000000000000000000000000000000000000000000000000000000000000000400000000000000000000000000100800000000004000000000000000000000000000000000000000000000000000000000000000200000000000000000000000000020000000000000000000000000000000000000000000000000000000000000000000000000000200000000000000000000000002008000000000000000000000010000000000000000000000000000000000000020000000000000000000000",
      "type": "0x2",
      "transactionHash": "0xa028b78ff5aeb2e2d7c3661e7f276de7c46db7e3b5b28c8bd425edcfd5544da3",
      "transactionIndex": "0x0",
      "blockHash": "0xef8d0b43ad0b5e81df80045032d6bce40d77d74388579356dee8023dd89aefdd",
      "blockNumber": "0x32",
      "gasUsed": "0xb45e",
      "effectiveGasPrice": "0x1b2bcd",
      "blobGasPrice": "0x1",
      "from": "0xf39fd6e51aad88f6f4ce6ab8827279cfffb92266",
      "to": "0x0dcd1bf9a1b36ce34237eeafef220932846bcd82",
      "contractAddress": null
    },
    {
      "status": "0x1",
      "cumulativeGasUsed": "0x7192",
      "logs": [
        {
          "address": "0x0dcd1bf9a1b36ce34237eeafef220932846bcd82",
          "topics": [
            "0x8c5be1e5ebec7d5bd14f71427d1e84f3dd0314c0f7b2291e5b200ac8c7c3b925",
            "0x000000000000000000000000f39fd6e51aad88f6f4ce6ab8827279cfffb92266",
            "0x0000000000000000000000000dcd1bf9a1b36ce34237eeafef220932846bcd82"
          ],
          "data": "0x00000000000000000000000000000000000000000000000006f05b59d3b20001",
          "blockHash": "0x8849b56db777448c4ef922567cfda0863d7030e87d125a088a717c1d815a9920",
          "blockNumber": "0x33",
          "blockTimestamp": "0x67e44d66",
          "transactionHash": "0xbf20e5378b9f5d005f9e305e2e3650663e11cd5774a6218e691d7a2632525a8e",
          "transactionIndex": "0x0",
          "logIndex": "0x0",
          "removed": false
        }
      ],
      "logsBloom": "0x000000000000000000000000000000000000000000000000000000000000000000000000000000000000000000000000000000000000000000000000002000000000000000000000000000000000000000000000000000100000000000004000000000000000000000000001000000080000000000000000000000000000000000000000000000000000000000000000000002000000000000000000000000000200000000000000000000000000000000000000000000000000000000000000000000000000002000000000000000000000000020000000000000000000000000100000000000000000000000000000000000000a0000000000000000000000",
      "type": "0x2",
      "transactionHash": "0xbf20e5378b9f5d005f9e305e2e3650663e11cd5774a6218e691d7a2632525a8e",
      "transactionIndex": "0x0",
      "blockHash": "0x8849b56db777448c4ef922567cfda0863d7030e87d125a088a717c1d815a9920",
      "blockNumber": "0x33",
      "gasUsed": "0x7192",
      "effectiveGasPrice": "0x17c901",
      "blobGasPrice": "0x1",
      "from": "0xf39fd6e51aad88f6f4ce6ab8827279cfffb92266",
      "to": "0x0dcd1bf9a1b36ce34237eeafef220932846bcd82",
      "contractAddress": null
    },
    {
      "status": "0x1",
      "cumulativeGasUsed": "0x23598",
      "logs": [
        {
          "address": "0x5fbdb2315678afecb367f032d93f642f64180aa3",
          "topics": [
            "0x6e9738e5aa38fe1517adbb480351ec386ece82947737b18badbcad1e911133ec",
            "0x0000000000000000000000000dcd1bf9a1b36ce34237eeafef220932846bcd82",
            "0xf39fd6e51aad88f6f4ce6ab8827279cfffb92200000000000000000000000000",
            "0x0000000000000000000000000dcd1bf9a1b36ce34237eeafef220932846bcd82"
          ],
          "data": "0x000000000000000000000000f39fd6e51aad88f6f4ce6ab8827279cfffb92266ba08765200000000000000000000000000000000000000000000000000000000",
          "blockHash": "0xae8678412b866ff664b0ac897605bde2a7a47afe0ce6a7002a157a82d252dd87",
          "blockNumber": "0x34",
          "blockTimestamp": "0x67e44d66",
          "transactionHash": "0x2ed8986a9fc289abfb82089a58a8963e36583459c0c5de94d24936912703bb0a",
          "transactionIndex": "0x0",
          "logIndex": "0x0",
          "removed": false
        },
        {
          "address": "0x0dcd1bf9a1b36ce34237eeafef220932846bcd82",
          "topics": [
            "0xddf252ad1be2c89b69c2b068fc378daa952ba7f163c4a11628f55a4df523b3ef",
            "0x000000000000000000000000f39fd6e51aad88f6f4ce6ab8827279cfffb92266",
            "0x0000000000000000000000000000000000000000000000000000000000000000"
          ],
          "data": "0x00000000000000000000000000000000000000000000000006f05b59d3b20001",
          "blockHash": "0xae8678412b866ff664b0ac897605bde2a7a47afe0ce6a7002a157a82d252dd87",
          "blockNumber": "0x34",
          "blockTimestamp": "0x67e44d66",
          "transactionHash": "0x2ed8986a9fc289abfb82089a58a8963e36583459c0c5de94d24936912703bb0a",
          "transactionIndex": "0x0",
          "logIndex": "0x1",
          "removed": false
        },
        {
          "address": "0xe7f1725e7734ce288f8367e1bb143e90bb3f0512",
          "topics": [
            "0xddf252ad1be2c89b69c2b068fc378daa952ba7f163c4a11628f55a4df523b3ef",
            "0x0000000000000000000000000dcd1bf9a1b36ce34237eeafef220932846bcd82",
            "0x000000000000000000000000f39fd6e51aad88f6f4ce6ab8827279cfffb92266"
          ],
          "data": "0x00000000000000000000000000000000000000000000000006f05b59d3b20001",
          "blockHash": "0xae8678412b866ff664b0ac897605bde2a7a47afe0ce6a7002a157a82d252dd87",
          "blockNumber": "0x34",
          "blockTimestamp": "0x67e44d66",
          "transactionHash": "0x2ed8986a9fc289abfb82089a58a8963e36583459c0c5de94d24936912703bb0a",
          "transactionIndex": "0x0",
          "logIndex": "0x2",
          "removed": false
        },
        {
          "address": "0x0dcd1bf9a1b36ce34237eeafef220932846bcd82",
          "topics": [
            "0xfbde797d201c681b91056529119e0b02407c7bb96a4a2c75c01fc9667232c8db",
            "0x000000000000000000000000f39fd6e51aad88f6f4ce6ab8827279cfffb92266",
            "0x000000000000000000000000f39fd6e51aad88f6f4ce6ab8827279cfffb92266",
            "0x000000000000000000000000f39fd6e51aad88f6f4ce6ab8827279cfffb92266"
          ],
          "data": "0x00000000000000000000000000000000000000000000000006f05b59d3b2000100000000000000000000000000000000000000000000000006f05b59d3b20001",
          "blockHash": "0xae8678412b866ff664b0ac897605bde2a7a47afe0ce6a7002a157a82d252dd87",
          "blockNumber": "0x34",
          "blockTimestamp": "0x67e44d66",
          "transactionHash": "0x2ed8986a9fc289abfb82089a58a8963e36583459c0c5de94d24936912703bb0a",
          "transactionIndex": "0x0",
          "logIndex": "0x3",
          "removed": false
        },
        {
          "address": "0x5fbdb2315678afecb367f032d93f642f64180aa3",
          "topics": [
            "0xaea973cfb51ea8ca328767d72f105b5b9d2360c65f5ac4110a2c4470434471c9",
            "0x0000000000000000000000000dcd1bf9a1b36ce34237eeafef220932846bcd82"
          ],
          "data": "0x",
          "blockHash": "0xae8678412b866ff664b0ac897605bde2a7a47afe0ce6a7002a157a82d252dd87",
          "blockNumber": "0x34",
          "blockTimestamp": "0x67e44d66",
          "transactionHash": "0x2ed8986a9fc289abfb82089a58a8963e36583459c0c5de94d24936912703bb0a",
          "transactionIndex": "0x0",
          "logIndex": "0x4",
          "removed": false
        }
      ],
      "logsBloom": "0x000000000000004000000000000000000000000000000080000000000000200000000000000000000000000000000000100010000000000000000000000000000000000000000000000000080000000000000000000000100000000000004000000000400200000000000001000008080800000000000000000000100000000000000000000000000000000000000000000002000000000000000002000000000000000000000000000000000000010200000000000000000000080000000000000000420000042000000000000010000000000020000000000000000000200000000000000000000000000000800000000000000a0000800000000000020000",
      "type": "0x2",
      "transactionHash": "0x2ed8986a9fc289abfb82089a58a8963e36583459c0c5de94d24936912703bb0a",
      "transactionIndex": "0x0",
      "blockHash": "0xae8678412b866ff664b0ac897605bde2a7a47afe0ce6a7002a157a82d252dd87",
      "blockNumber": "0x34",
      "gasUsed": "0x23598",
      "effectiveGasPrice": "0x14d15b",
      "blobGasPrice": "0x1",
      "from": "0xf39fd6e51aad88f6f4ce6ab8827279cfffb92266",
      "to": "0x0dcd1bf9a1b36ce34237eeafef220932846bcd82",
      "contractAddress": null
    }
  ],
  "libraries": [],
  "pending": [],
  "returns": {},
  "timestamp": 1743015270,
  "chain": 31337,
  "commit": "cc3f498"
}